:10F800002182B140E8030000B240805A2001B012CA
:10F8100068FDB01234FDB012B2FDB01272FCD243DA
:10F820000102B012C0F9B012F8FC32D2B2D003001B
:10F83000B00132D018005F4228020E4F5E53C24E14
:10F8400028024F4F0F5F0F5F9F42B40108028F43A2
:10F850000A02F29228020220C243280282432A02AC
:10F8600082432C02C1430200F19202000F2C5F413F
:10F8700002000F5F0F5F925F08022A02926F0A0276
:10F880002C02D1530200F1920200F12B1C422A02F9
:10F890001D422C02B01218FB824C2A02824D2C020F
:10F8A000918300000324C29304022824B0121AFD9D
:10F8B000C29304020724B240F8000602B012FAFB19
:10F8C000C24304021C422A021D422C023E40F9029D
:10F8D0000F43B012D2FC3C80C6503D7007003E4042
:10F8E00000040F43B012BAFB4C4C824C0602B0121B
:10F8F000FAFBB140E8030000B012F8FC1E422A02F5
:10F900001F422C021E822E021F723002824E3202D1
:10F91000824F3402B293340205381220B290FBFFBA
:10F9200032020E2CB2E33202B2E3340292533202BC
:10F9300082633402E2430502F2F0BF002100183C6A
:10F94000829334020A380420B2900600320205285D
:10F95000D2430502D2C321000B3CC2430502B2F0E0
:10F96000EFFF6201B2F0EFFF6401F2F0BE00210090
:10F97000C29305025B271C4232021D423402B012C0
:10F9800066FB824C3202824D3402B25014003202C5
:10F99000826334028293340205380720B290CF0785
:10F9A0003202032C1F423202023C3F40CF07824FFB
:10F9B0007401B2D010006201B2D010006401363F71
:10F9C0002183B24060A0B201B2403838B0010D12BC
:10F9D0003D404B011D83FE233D41B2D00300B001E9
:10F9E00032D018009242B4012E0282433002C14349
:10F9F0000000F19200000E2C6F410F5F0F5F9F42DD
:10FA00002E0208029F4230020A02D1530000F192F6
:10FA10000000F22B92422E022A02924230022C0265
:10FA200021533041D29302021D20B25034007201A2
:10FA3000B2B0001062012324C29300020420B2F08D
:10FA4000EFFF62010013B2D08000620192B30602A0
:10FA50000324B2F07FFF620112C312100602D283A8
:10FA600000020013D29305020320F2D040002100CF
:10FA7000E29305020220D2D3210092C36201001357
:10FA80000A12091209430A431B430F930424094D28
:10FA90000D4C0C430D3C0C5C0D6D0969098E04285E
:10FAA0001CD30B5BF82B033C095E0B5BF42B1B4355
:10FAB0000C5C0D6D09690A6A098E0A7F04281CD343
:10FAC0000B5BF62B043C095E0A6F0B5BF12B0E49B6
:10FAD0000F4A39413A4130413EF01F0004240D11D4
:10FAE0000C101E83FC2330410D110C100D110C1055
:10FAF0000D110C100D110C100D110C100D110C101E
:10FB00000D110C100D110C100D110C100D110C100D
:10FB10000D110C100D110C100D110C100D110C10FD
:10FB20000D110C1030413EF01F0004240C5C0D6DD3
:10FB30001E83FC2330410C5C0D6D0C5C0D6D0C5C68
:10FB40000D6D0C5C0D6D0C5C0D6D0C5C0D6D0C5C2D
:10FB50000D6D0C5C0D6D0C5C0D6D0C5C0D6D0C5C1D
:10FB60000D6D0C5C0D6D0C5C0D6D0C5C0D6D0C5C0D
:10FB70000D6D30410A1209123F40D2FD3F9312240D
:10FB80003D40D2FD0C3C8F122A53123C3C4D0A4D95
:10FB90000E49B01290FD0A590D4A1D531DC3394D2F
:10FBA0000993F4233F40FFFF3F9305243A40FFFFB2
:10FBB0002F4A0F93E8233040ACFD0A120A430F93FB
:10FBC00005343EE33FE31E530F631AD30D93053410
:10FBD0003CE33DE31C530D633AE3B01280FA1AB3E1
:10FBE00004243CE33DE31C530D632AB304243EE3A9
:10FBF0003FE31E530F633A413041F2400A000002D6
:10FC000092927001720107249242700172019292E5
:10FC100070017201F923B25034007201B2D00001B8
:10FC20000602925206020602B24030106201B2B0E1
:10FC300010006201FC233041C2432300F2C22500C0
:10FC4000B2401D5A2001D2C30200D2D30000D29389
:10FC50000102092092422A022E0292422C02300214
:10FC6000D24304020013D2430102B1C0D00000000D
:10FC70000013F2D041002200D2D32100F2F0BF00E5
:10FC80002100F2D010005700F2D020005300B24003
:10FC9000B0047201B24010016001B2407000640112
:10FCA000B2405802740132D0D800304131407E0257
:10FCB000B240D0FD3602B240D0FD3802B012C8FDCD
:10FCC0000C930224B01274FB0C43B01200F8B01273
:10FCD000CCFD0A120A430B4312C30D100C1002286C
:10FCE0000A5E0B6F0E5E0F6F0D93F6230C93F423D9
:10FCF0000C4A0D4B3A413041C2430202B240D00798
:10FD00007201B24010026001B24010006201B240C4
:10FD100070006401924374013041D2430202A24256
:10FD20006201B240E0026001F2D006002600E2D398
:10FD300022003041F2C22200F2D22100F2D227008A
:10FD4000F2D22400F2C22300F2D22500304192C345
:10FD50006401D29301020420F2F0BE0021000013DE
:10FD6000F2E0410021000013D242FF105700D242BE
:10FD7000FE105600F2F0F90058003041D2C30000E6
:10FD8000D2C30200B240805A2001F2D225000013F3
:10FD90000F4C0E9305241F53FF4DFFFF1E83FB23C3
:10FDA00030413441354136413741384139413A419A
:10FDB0003041F2D041002200F2F0BE00210030417B
:10FDC000B1C01000000000131C4330410343FF3F4B
:10FDD00030410100010200000100020200000100A8
:10FDE00004020000010005020000010028020000DA
:10FDF0000000FFFFFFFFFFFFFFFFFFFFFFFFFFFF11
:10FE0000FFFFFFFFFFFFFFFFFFFFFFFFFFFFFFFF02
:10FE1000FFFFFFFFFFFFFFFFFFFFFFFFFFFFFFFFF2
:10FE2000FFFFFFFFFFFFFFFFFFFFFFFFFFFFFFFFE2
:10FE3000FFFFFFFFFFFFFFFFFFFFFFFFFFFFFFFFD2
:10FE4000FFFFFFFFFFFFFFFFFFFFFFFFFFFFFFFFC2
:10FE5000FFFFFFFFFFFFFFFFFFFFFFFFFFFFFFFFB2
:10FE6000FFFFFFFFFFFFFFFFFFFFFFFFFFFFFFFFA2
:10FE7000FFFFFFFFFFFFFFFFFFFFFFFFFFFFFFFF92
:10FE8000FFFFFFFFFFFFFFFFFFFFFFFFFFFFFFFF82
:10FE9000FFFFFFFFFFFFFFFFFFFFFFFFFFFFFFFF72
:10FEA000FFFFFFFFFFFFFFFFFFFFFFFFFFFFFFFF62
:10FEB000FFFFFFFFFFFFFFFFFFFFFFFFFFFFFFFF52
:10FEC000FFFFFFFFFFFFFFFFFFFFFFFFFFFFFFFF42
:10FED000FFFFFFFFFFFFFFFFFFFFFFFFFFFFFFFF32
:10FEE000FFFFFFFFFFFFFFFFFFFFFFFFFFFFFFFF22
:10FEF000FFFFFFFFFFFFFFFFFFFFFFFFFFFFFFFF12
:10FF0000FFFFFFFFFFFFFFFFFFFFFFFFFFFFFFFF01
:10FF1000FFFFFFFFFFFFFFFFFFFFFFFFFFFFFFFFF1
:10FF2000FFFFFFFFFFFFFFFFFFFFFFFFFFFFFFFFE1
:10FF3000FFFFFFFFFFFFFFFFFFFFFFFFFFFFFFFFD1
:10FF4000FFFFFFFFFFFFFFFFFFFFFFFFFFFFFFFFC1
:10FF5000FFFFFFFFFFFFFFFFFFFFFFFFFFFFFFFFB1
:10FF6000FFFFFFFFFFFFFFFFFFFFFFFFFFFFFFFFA1
:10FF7000FFFFFFFFFFFFFFFFFFFFFFFFFFFFFFFF91
:10FF8000FFFFFFFFFFFFFFFFFFFFFFFFFFFFFFFF81
:10FF9000FFFFFFFFFFFFFFFFFFFFFFFFFFFFFFFF71
:10FFA000FFFFFFFFFFFFFFFFFFFFFFFFFFFFFFFF61
:10FFB000FFFFFFFFFFFFFFFFFFFFFFFFFFFFFFFF51
:10FFC000FFFFFFFFFFFFFFFFFFFFFFFFFFFFFFFF41
:10FFD000FFFFFFFFFFFFFFFFFFFFFFFFFFFFFFFF31
:10FFE000FFFFFFFF38FCFFFFFFFFC0FDFFFFFFFF2C
:10FFF0004EFD24FA7CFDFFFFFFFFFFFFFFFFACFC7F
:00000001FF
